:060000000A128A110C280F
:10000800FE00030EF0000A08F1000A128A153B2FC1
:100018000A128A110F2883120313E201E301E40193
:10002800E501E601E70183010A128A11B82D83125E
:10003800031329088039B3002908AE002E07B90038
:10004800A81F2728282829283914390803192D28F2
:100058002E283D28390A031D322833283B28003032
:10006800A9000030A8000030A7000030A600A8179B
:1000780045280030A9000030A8000030A700003053
:10008800A6002D088039AE002E08B3062D08AE0054
:100098002E07B800AC1F51285228532838143808A6
:1000A8000319572858286728380A031D5C285D2833
:1000B80065280030AD000030AC000030AB000030E7
:1000C800AA00AC176F280030AD000030AC0000303B
:1000D800AB000030AA00380803197328742879285F
:1000E8003908031D7828792882280030A9000030B3
:1000F800A8000030A7000030A6005F2B2608F200F9
:100108002C080A128A1584270A128A117308831286
:100118000313BF007208BE003E08AE00AF01B00175
:10012800B1013108B7003008B6002F08B5002E0815
:10013800B4003F08AE00AF01B001B1013108BD0005
:100148003008BC002F08BB002E08BA002708F200B0
:100158002B080A128A1584270A128A117308831237
:100168000313BF007208BE003E08AE00AF01B00125
:10017800B1012E08B4072F0803110318013E031913
:10018800C628B507300803110318013E0319CD2806
:10019800B607310803110318013E0319D428B7071D
:1001A8003F08AE00AF01B001B1012E08BA072F0811
:1001B80003110318013E0319E228BB073008031195
:1001C8000318013E0319E928BC0731080311031875
:1001D800013E0319F028BD072808F2002A080A1270
:1001E8008A1584270A128A11730883120313BF0021
:1001F8007208BE003E08AE00AF01B001B1012E0882
:10020800B4072F0803110318013E03190C29B50779
:10021800300803110318013E03191329B6073108E2
:1002280003110318013E03191A29B7073F08AE0046
:10023800AF01B001B1012E08BA072F080311031846
:10024800013E03192829BB07300803110318013E92
:1002580003192F29BC07310803110318013E03199C
:100268003629BD070830AE000310B40DB50DB60D24
:10027800B70DAE0B38292708F2002A080A128A158A
:1002880084270A128A11730883120313BF007208A5
:10029800BE003E08AE003F08AF00B001B1012E0815
:1002A800B4072F0803110318013E03195C29B50789
:1002B800300803110318013E03196329B6073108F2
:1002C80003110318013E03196A29B7072608F2002B
:1002D8002B080A128A1584270A128A1173088312B6
:1002E8000313BF007208BE003E08AE003F08AF000F
:1002F800B001B1012E08B4072F0803110318013EFD
:1003080003198729B507300803110318013E03199B
:100318008E29B607310803110318013E03199529E0
:10032800B7070830AE000310B40DB50DB60DB70D04
:10033800AE0B97292608F2002A080A128A15842784
:100348000A128A11730883120313BF007208BE00D1
:100358003E08AE003F08AF00B001B1012E08B40757
:100368002F0803110318013E0319BB29B5073008EC
:1003780003110318013E0319C229B60731080311F6
:100388000318013E0319C929B7072708F2002C08EA
:100398000A128A1584270A128A1173088312031312
:1003A800BF007208BE003E08AE003F08AF00B001B3
:1003B800B1012E08BA072F0803110318013E0319CB
:1003C800E629BB07300803110318013E0319ED297C
:1003D800BC07310803110318013E0319F429BD07AE
:1003E8002808F2002B080A128A1584270A128A1193
:1003F800730883120313BF007208BE003E08AE00E4
:100408003F08AF00B001B1012E08BA072F08031149
:100418000318013E0319112ABB07300803110318FA
:10042800013E0319182ABC07310803110318013EBD
:1004380003191F2ABD072808F2002C080A128A157A
:1004480084270A128A11730883120313BF007208E3
:10045800BE003E08AE003F08AF00B001B101083051
:100468000310AE0DAF0DB00DB10DFF3E031D342AC4
:100478002E08BA072F0803110318013E0319452A4D
:10048800BB07300803110318013E03194C2ABC07A7
:10049800310803110318013E0319532ABD07340814
:1004A800AE003508AF003608B0003708B100183084
:1004B8000310B10CB00CAF0CAE0CFF3E031D5C2A50
:1004C8002E08BA072F0803110318013E03196D2AD5
:1004D800BB07300803110318013E0319742ABC072F
:1004E800310803110318013E03197B2ABD070830A0
:1004F800AE000310B40DB50DB60DB70DAE0B7D2AC9
:1005080039083807AE00AF01AF0D2E08823EBE0095
:100518002F080318013EFF3EBF00AF2A0130AE008E
:100528000310BA0DBB0DBC0DBD0DAE0B942AB71F41
:100538009E2A9F2AA02A3A140130AE000310B40D57
:10054800B50DB60DB70DAE0BA22AFF30BE070318C6
:10055800BF0AFF30BF07BC1FB22AB32A922AB801CC
:10056800B71FB72AB82AD42AFF303405AE00FF30A7
:100578003505AF00FF303605B0007F303705B100D4
:10058800310830042F042E040319CB2ACC2ACF2A91
:10059800B801B80AD42A3A1CD22AD32AD42ACC2A97
:1005A80038080319D82AD92A0A2B0130BA0700308B
:1005B80003180130BB07003003180130BC070030B6
:1005C80003180130BD073D1CEA2AEB2A0A2B3A081A
:1005D800AE003B08AF003C08B0003D08B100013058
:1005E800B200310DB10CB00CAF0CAE0CB20BF52A49
:1005F8003108BD003008BC002F08BB002E08BA0027
:100608000130BE070318BF0A0030BF073F08803A11
:10061800FF0080307F02031D132BFF303E02031CB6
:10062800162B172B222B7F3083120313BD0080302B
:10063800BC000030BB000030BA00532B83120313F8
:100648003F08803AFF0080307F02031D2D2B0130C8
:100658003E020318302B312B3D2B0030831203133D
:10066800BD000030BC000030BB000030BA00B30150
:10067800532B831203133E08B900FF30BA05FF302D
:10068800BB057F30BC050030BD05391C4C2B4D2BFC
:100698004E2BBC173908AE0003102E0CBD003308D2
:1006A800AE002E08BD043D08A9003C08A8003B0880
:1006B800A7003A08A60008008312031343088039EC
:1006C800D0004308C8004807D200C21F6C2B6D2B0E
:1006D8006E2B521452080319722B732B832B520A58
:1006E800031D772B782B802B0030C3000030C2000D
:1006F8000030C1000030C000C217C3018B2B00308E
:10070800C3000030C2000030C1000030C0004708FC
:100718008039D100510850060319932B942B952B3F
:1007280050174708C8004807D100C61F9C2B9D2BAF
:100738009E2B511451080319A22BA32BB32B510A3A
:10074800031DA72BA82BB02B0030C7000030C60014
:100758000030C5000030C400C617C701BB2B0030ED
:10076800C7000030C6000030C5000030C400520881
:1007780051020318C02BC12BE72B501FC42BC52BCC
:10078800C92B8030C8004808D0065208D300510849
:10079800D2005308D1004008D3004408C0005308D1
:1007A800C4004108D3004508C1005308C5004208E9
:1007B800D3004608C2005308C6004308D3004708C0
:1007C800C3005308C700D3015108C800C90149082C
:1007D800CB0052084802CA00031CCB034B08803ADE
:1007E800FF0080307F02031DFB2B1A304A02031CD6
:1007F800FE2BFF2B362C83120313430842044104BB
:100808004004031D082C0A2C01300B2C0030D300A7
:100818000030C3000030C2000030C1000030C0000A
:100828005108D2003E2C531C1A2C1B2C222C530886
:10083800C8000310480C0138D300242C0310D30C33
:10084800401C272C282C292CD3170130C800430D15
:10085800C30CC20CC10CC00CC80B2B2C0130C80037
:100868004808D2078312031351085202031C3D2C77
:100878003E2C172C501B412C422C8B2C5208031D4C
:10088800462C472C502C0030C3000030C2000030EA
:10089800C1000030C000B72D4408C0074508031147
:1008A8000318013E0319592CC10746080311031800
:1008B800013E0319602CC207470803110318013EC3
:1008C8000319672CC307431C6A2C6B2C3F2D531C40
:1008D8006E2C6F2C762C5308C8000310480C013876
:1008E800D300782C0310D30C401C7B2C7C2C7D2C43
:1008F800D3170130C800430DC30CC20CC10CC00C87
:10090800C80B7F2C0130C8004808D2073F2D430888
:10091800803AFF004708803A7F02031D9D2C460855
:100928004202031D9D2C45084102031D9D2C4408CD
:1009380040020318A02CA12CF92CFF30C800FF306E
:10094800C900FF30CA00FF30CB004408CC0045087E
:10095800CD004608CE004708CF004008CC02410829
:10096800031C410FB82CB92CCD024208031C420FBE
:10097800BE2CBF2CCE024308031C430FC42CC52C2D
:10098800CF024C08C8074D0803184D0FCC2CCD2CAE
:10099800C9074E0803184E0FD22CD32CCA074F088C
:1009A80003184F0ACB074B08C3004A08C20049087E
:1009B800C1004808C0008030C8004808D006D309E4
:1009C800D30A5308031DE92CEA2C072D0130C00770
:1009D800003003180130C107003003180130C20786
:1009E800003003180130C307072D4408C00245082A
:1009F800031C450FC1024608031C460FC2024708E4
:100A0800031C470FC3024308420441044004031D6A
:100A18000E2D0F2D3B2D5308031D132D142D3B2D8B
:100A28000030C3000030C2000030C1000030C000F8
:100A3800B72D0130C8000310C00DC10DC20DC30D84
:100A4800C80B1F2DD31F292D2A2D2B2D4014531CC5
:100A58002E2D2F2D322D0314D30D342D0310D30D2D
:100A680052080319382D392D3B2D0130D202C21FEF
:100A78003E2D3F2D1D2DD101D31F432D442D522D29
:100A880053087F390319492D4A2D4D2DD101D10A1B
:100A9800522D401C502D512D522D4A2D510803190D
:100AA800562D572D8B2D0130C0070030031801300B
:100AB800C107003003180130C207003003180130A5
:100AC800C307431C682D692D8B2D4008C8004108B9
:100AD800C9004208CA004308CB000130CC004B0DC6
:100AE800CB0CCA0CC90CC80CCC0B732D4B08C3001B
:100AF8004A08C2004908C1004808C000520A031940
:100B0800862D872D8B2D0130C8004808D207520A40
:100B180003198F2D902D952D5208031D942D952D79
:100B2800A32D0030C3000030C2000030C1000030E7
:100B3800C0005208031DA12DA22DA32DD001521CC7
:100B4800A62DA72DA92DC217AD2D7F30C8004808A6
:100B5800C2055208C8000310480CC300D01FB52DA9
:100B6800B62DB72DC31708000A128A11AF270A122B
:100B78008A110A128A11E0270A128A110A128A15A2
:100B88005F270A128A11013083120313E60000302E
:100B9800E70083120313091DD22DD32D682E0919DE
:100BA800D62DD72DD32D0A128A154A270A128A1153
:100BB800682EC3309F05033083120313E000E00B57
:100BC800E32D831203139F149F18EB2DEC2DE82DB2
:100BD8001E08E000E1016008E4006108E50065081E
:100BE800DF006408DE000A128A15AB270A128A1190
:100BF8008312031362089500033083120313E00085
:100C0800E00B042E831203131F08C33904389F0016
:100C1800033083120313E000E00B102E831203133A
:100C28009F149F18182E192E152E1E08E000E1019A
:100C38006008E4006108E5006508DF006408DE007C
:100C48000A128A15AB270A128A1183120313620843
:100C58009B00033083120313E000E00B312E831254
:100C680003131F08C33908389F0003308312031386
:100C7800E000E00B3D2E831203139F149F18452EAE
:100C8800462E422E1E088800033083120313E0000C
:100C9800E00B4C2E831203131F08C3390C389F0036
:100CA800033083120313E000E00B582E8312031362
:100CB8009F149F18602E612E5D2E0330831203133C
:100CC800E000E00B652ECD2D831203136708003A70
:100CD80003196F2ECD2D6608013A0319DD2D033A4D
:100CE8000319CD2D013A0319CD2DCD2D0A128A11E4
:100CF8000C2883120313A00020080319842E852EC4
:100D0800992EF51F882E892E992E7209A200730933
:100D1800A3007409A4007509A500A20A0319A30A6F
:100D28000319A40A0319A50AA12E7508A5007408B9
:100D3800A4007308A3007208A20075087404730461
:100D48007204031DA82EA92EB22E0030F500003023
:100D5800F4000030F3000030F200362F9630A10086
:100D6800C22E0130F6007608A10701300310A50C49
:100D7800A40CA30CA20CFF3E031DBA2EFE302505C1
:100D8800031DC72EC82EB52EE42E0130F6007608B6
:100D9800A1070130A207003003180130A307003073
:100DA80003180130A407003003180130A5070130EB
:100DB8000310A50CA40CA30CA20CFF3E031DDC2EF3
:100DC800FF302505031DE92EEA2EC92EF62E013027
:100DD800A1020130F6000310A20DA30DA40DA50D6C
:100DE800F60BEF2EA41BF92EFA2E002F023021024B
:100DF8000318FF2E002FEB2E2118032F042F0C2F82
:100E0800FF30A205FF30A3057F30A405FF30A505FC
:100E18000310A10C2108F600F701F801F9011830B8
:100E28000310F60DF70DF80DF90DFF3E031D142FF5
:100E38007608A2047708A3047808A4047908A5040E
:100E480020080319282F292F2E2FF51F2C2F2D2F7F
:100E58002E2FA5172508F5002408F4002308F30011
:100E68002208F2000800031083120313560D570DD1
:100E7800DD005D08031D412F422F4B2F0030D700A6
:100E88000030D6000030D5000030D400AE2F540812
:100E9800D8005508D9005608DA005708DB001F307B
:100EA8000310DB0CDA0CD90CD80CFF3E031D542FB1
:100EB8005808DC00D617FF30D405FF30D505FF30C1
:100EC800D6050030D7059630DD02DD1F6C2F6D2F5B
:100ED800872F5D08803A973E0318732F742F752F5C
:100EE800422F01300310D70CD60CD50CD40CFF3E82
:100EF800031D762F0130D8005808DD07031D852F04
:100F0800862F752F9E2F20305D02031C8C2F8D2F6E
:100F1800992F422F0130D8000310D40DD50DD60DCE
:100F2800D70DD80B902F0130DD025D08031D9D2FD2
:100F38009E2F8E2F5C080319A22FA32FAE2FD40942
:100F4800D509D609D709D40A0319D50A0319D60A27
:100F58000319D70A08000F30831603178800890180
:100F68000F30831603138500860106308700880139
:100F780004308900831203138501860187018801E3
:100F88008901831603130F088F3930388F000F1427
:100F98008B170C178B16831203130C130B11831664
:100FA8000313811281110108F83903388100F030E8
:100FB8008312031381000800831203131F083F39AB
:100FC80040389F00831603139F121F129F13C330CC
:100FD800831203139F051F140C130330F200F20B46
:060FE800F32FF62F0800B4
:101E76000B11831203130C1F412F422F432F0C13F8
:101E860071088A00700E8300FE0E7E0E0900033074
:101E960083120313660667040319522F532F5A2F12
:101EA6000130E6070318E70A0030E7075E2F013026
:101EB600E6000030E70008008316031307158714B1
:101EC600FF3092003F308312031397051708F0394D
:101ED6000C3897000F309D04303097040B30950076
:101EE6009D161D160B309B008C10033092041215A4
:101EF6008C1C7E2F7F2F7B2F8316031307118710D1
:101F06000800FA00F601F7017208F400F5017408FA
:101F1600F8007508F9007A1C912F922F982F7808EF
:101F2600F6070318F70A7908F70701300310F80DCA
:101F3600F90DFF3E031D992F0310FA0C7A08031DB5
:101F4600A52FA62F8E2F7708F3007608F20008003B
:101F5600831203135E08F2005F08F3000030F31BE0
:101F6600FF30F400F50001300A128A117D260A12AC
:101F76008A15750883120313AD007408AC00730844
:101F8600AB007208AA003D30A9001030A8009030BE
:101F9600A7009130A6000A128A111B200A128A1580
:101FA600831203132908C7002808C6002708C5009E
:101FB6002608C4004030C300E030C2000030C10033
:101FC6000030C0000A128A1160230A128A15831291
:101FD60003134308D7004208D6004108D50040083D
:101FE600D4000A128A1137270A128A15831203139C
:0A1FF6005508E3005408E20008005B
:08400000FF3FFF3FFF3FFF3FC0
:04400E00D420FF3F7C
:00000001FF
