:060000000A128A110C280F
:10000800FE00030EFC000A08FD000A128A114B29A3
:100018000A128A110F28F001F101F201F301F4012B
:10002800F501F60183120313BC01BD01BE01BF0136
:10003800C001C101C201C301C401C501C601C70194
:10004800C801C90183010A128A112A280A128A11D1
:10005800BF220A128A110A128A1164230A128A110B
:100068000A128A111D230A128A110A128A1193236D
:100078000A128A110130F4000030F50083120313CC
:10008800091D47284828382909194B284C28482889
:100098000A128A11A6230A128A1138298312031315
:1000A800081088100815C3309F0503308312031306
:1000B800BB00BB0B5D28831203139F149F18652890
:1000C800662862280030AF00B000FF30B100003071
:1000D800B2000530B3000030B4001130B500003074
:1000E800B6001E080A128A1184220A128A11831283
:1000F80003133008F3002F08F2007208950003304C
:1001080083120313BB00BB0B8728831203131F083A
:10011800C33904389F00033083120313BB00BB0BA1
:100128009328831203139F149F189B289C289828B0
:100138000030AF00B000FF30B1000030B200053031
:10014800B3000030B4001130B5000030B6001E080E
:100158000A128A1184220A128A11831203133008A0
:10016800C9002F08C80048089B00033083120313F6
:10017800BB00BB0BBD28831203131F08C339083803
:100188009F00033083120313BB00BB0BC9288312E3
:1001980003139F149F18D128D228CE280030AF000F
:1001A800B000FF30B1000030B2000530B3000030BD
:1001B800B4001130B5000030B6001E080A128A11CA
:1001C80084220A128A11831203133008C7002F08E9
:1001D800C600033083120313BB00BB0BF128831244
:1001E80003131F08C3390C389F000330831203130D
:1001F800BB00BB0BFD28831203139F149F1805290E
:10020800062902290030AF00B000FF30B1000030ED
:10021800B2000530B3000030B4001130B500003032
:10022800B6001E080A128A1184220A128A11831241
:1002380003133008C5002F08C400033083120313CA
:10024800BB00BB0B2529422883120313081488100E
:1002580008117208950048089B004228831203136E
:1002680008108814081142287508003A03193D2916
:1002780042287408013A03195228033A0319282915
:10028800013A0319322942280A128A110C288312CA
:1002980003130C1E5029512952290C120C1F5529E1
:1002A800562957290C130B1D5A295B2978290B113C
:1002B8006430810085174708F8004608F7000A12DD
:1002C8008A11B9230A128A11831203138513051799
:1002D8004508F8004408F7000A128A11B9230A12DF
:1002E8008A118312031305130B1C7B297C29142AFA
:1002F80006187F29802989297008043EF0007108B2
:100308000318013E003EF100132A86188C298D2916
:1003180096297008FC3EF00071080318013EFF3E64
:10032800F100132A061999299A29C4297208F70095
:1003380070080A128A1142230A128A1183120313BF
:100348004808F7007008013E0A128A1142230A126F
:100358008A11831203134608F7007008023E0A1236
:100368008A1142230A128A11831203134408F700E0
:100378007008033E0A128A1142230A128A11132AAC
:10038800023074067504031DCA29CB29132A86195D
:10039800CE29CF29092A70080A128A117C230A1249
:1003A8008A11FA00FB017A08F2007B08F300700852
:1003B800013E0A128A117C230A128A11FA00FB01F3
:1003C8007A0883120313C8007B08C9007008023E2C
:1003D8000A128A117C230A128A11FA00FB017A0890
:1003E80083120313C6007B08C7007008033E0A1275
:1003F8008A117C230A128A11FA00FB017A088312F7
:100408000313C4007B08C500132A06180C2A0D2AFA
:100418000E2A80298618112A122A132A8D290B10D0
:100428007D088A007C0E8300FE0E7E0E0900831272
:100438000313AC01A71F212A222A292AA609A709E2
:10044800A60A0319A70AAC01AC0AA91F2C2A2D2A4F
:10045800362AA809A909A80A0319A90A0130AA0075
:100468002A08AC06AD01AE012608270403193D2A67
:100478003E2A752AAB01AB0A4C2A01300310A60D9F
:10048800A70DFF3E031D422A0130AA002A08AB0728
:10049800A71F4F2A502A412A01300310AD0DAE0D77
:1004A800FF3E031D512A27082902031D5D2A26083D
:1004B8002802031C602A612A682A2608A80227083D
:1004C800031CA903A9022D1401300310A70CA60CC4
:1004D800FF3E031D692A0130AB02031D742A752AE9
:1004E800502A2C080319792A7A2A7F2AAD09AE09DD
:1004F800AD0A0319AE0A2E08A7002D08A6000800A9
:1005080083120313BA002F083102B7003008031C06
:10051800300A3202B80033083707A6003408031837
:10052800340A3807A7003A08B9002F083902A00092
:1005380030090318013EA10033083502A20034082F
:10054800031C340A3602A3000A128A11F6220A1280
:100558008A11831203132108A9002008A8000A128F
:100568008A111B220A128A11831203132708B0006A
:100578002608AF0008000F3083160317880089018A
:100588000F308316031385000F308600063087006E
:1005980088010430890083120313850186018701CD
:1005A800880189013F3083160313960081130F08D1
:1005B8008F3930388F000F148B158B170C178B164B
:1005C800831203130C130B1083160313811281116A
:1005D8000108F8390338810064308312031381005D
:1005E8000B11080083120313A401A501201CFD2A86
:1005F800FE2A042B2208A4070318A50A2308A50726
:1006080001300310A20DA30DFF3E031D052B013081
:100618000310A10CA00CFF3E031D0C2B2008210485
:10062800031D172B182BFA2A2508A1002408A0005F
:1006380008008316031307158714FF3092003F3014
:100648008312031397051708F0390C3897000F30F9
:100658009D04303097040B3095009D161D160B3005
:100668009B008C100330920412158C1C3C2B3D2BE4
:10067800392B83160313071187100800F800831617
:1006880003178C18482B492B432B78088312031720
:100698008D0077088C00831603178C130C15003017
:1006A8008B1B0130F9008B1355308D00AA308D005B
:1006B8008C140C11790C031C8B1303188B1708006E
:1006C800831203131F083F3940389F008316031312
:1006D8009F121F129F13C330831203139F051F1409
:1006E8000C13033083120313A000A00B792B08000E
:1006F800F700831603178C18822B832B7D2B0C187D
:10070800862B872B7D2B7708831203178D00831682
:1007180003178C130C14831203170C0808000E30EF
:10072800831603139900181283120313981783165C
:1007380003139816831203130C1218168316031743
:10074800871508000330740675040319AC2BAD2B0C
:10075800B42B0130F4070318F50A0030F507B82B5D
:100768000130F4000030F5000800C32BBB2BBC2B74
:10077800BD2B0130F7020030031CF803F80277089C
:0C0788007804031DC82BC92BBA2B0800F5
:08400000FF3FFF3FFF3FFF3FC0
:04400E00D420FF3F7C
:00000001FF
