:060000000A128A110C280F
:10000800FE00030EF2000A08F3000A128A11DA2928
:100018000A128A110F28F701F801F9018312031354
:10002800B901BA01BB01BC01BD01BE01BF01C001DC
:1000380083010A128A1120280A128A110E220A1232
:100048008A110A128A118B220A128A110A128A113B
:1000580066220A128A11013083120313BF0000308E
:10006800C00083120313091D3A283B2821290919C6
:100078003E283F283B280A128A11A2220A128A1116
:100088002129081088100815C3309F0503308312F2
:100098000313B800B80B4E28831203139F149F183C
:1000A8005628572853280030AC00AD00FF30AE006A
:1000B8000030AF000530B0000030B1001130B200A0
:1000C8000030B3001E080A128A119F210A128A11F1
:1000D800831203132D08BE002C08BD003D089500AF
:1000E800033083120313B800B80B78288312031364
:1000F8001F08C33904389F00033083120313B80064
:10010800B80B8428831203139F149F188C288D28FA
:1001180089280030AC00AD00FF30AE000030AF00E1
:100128000530B0000030B1001130B2000030B3002B
:100138001E080A128A119F210A128A1183120313B8
:100148002D08BC002C08BB003B089B000330831221
:100158000313B800B80BAE28831203131F08C33962
:1001680008389F00033083120313B800B80BBA286D
:10017800831203139F149F18C228C328BF28003076
:10018800AC00AD00FF30AE000030AF000530B0006D
:100198000030B1001130B2000030B3001E080A125E
:1001A8008A119F210A128A11831203132D08F8005D
:1001B8002C08F700033083120313B800B80BE228A9
:1001C800831203131F08C3390C389F0003308312AE
:1001D8000313B800B80BEE28831203139F149F185B
:1001E800F628F728F3280030AC00AD00FF30AE0049
:1001F8000030AF000530B0000030B1001130B2005F
:100208000030B3001E080A128A119F210A128A11AF
:10021800831203132D08BA002C08B9000330831287
:100228000313B800B80B16293528081488100811CC
:10023800352808108814081135288312031340083C
:10024800003A0319282935283F08013A0319452897
:10025800033A03191929013A03191D2935280A12E5
:100268008A110C2883120313A901A51F3C293D29D3
:100278004429A409A509A40A0319A50AA901A90AD8
:10028800A71F472948295129A609A709A60A03191A
:10029800A70A0130F6007608A906AA01AB012408CE
:1002A80025040319582959299029A801A80A67295A
:1002B80001300310A40DA50DFF3E031D5D2901307B
:1002C800F6007608A807A51F6A296B295C29013062
:1002D8000310AA0DAB0DFF3E031D6C29250827024C
:1002E800031D782924082602031C7B297C298329DD
:1002F8002408A6022508031CA703A7022A14013014
:100308000310A50CA40CFF3E031D84290130A8028C
:10031800031D8F2990296B292908031994299529E8
:100328009A29AA09AB09AA0A0319AB0A2B08A5003E
:100338002A08A400080083120313B7002C082E0211
:10034800B4002D08031C2D0A2F02B500300834070D
:10035800A40031080318310A3507A5003708B6008C
:100368002C083602A0002D090318013EA100300810
:100378003202A2003108031C310A3302A3000A1218
:100388008A113F220A128A11831203132108A70037
:100398002008A6000A128A1136210A128A1183122D
:1003A80003132508AD002408AC00080083120313CA
:1003B8000C1EDF29E029E1290C120C1FE429E5298C
:1003C800E6290C130B1DE929EA29072A0B116430C9
:1003D800810085177808F1007708F0000A128A1161
:1003E800B7220A128A1183120313851305173A08D4
:1003F800F1003908F0000A128A11B7220A128A118C
:1004080083120313051373088A00720E8300FE0E0D
:100418007E0E09000F3083160317880089010F30FC
:10042800831603138500860106308700880104308F
:1004380089008312031385018601870188018901D8
:10044800831603130F088F3930388F000F148B175A
:100458000C178B16831203130C13831603138112C4
:1004680081110108F83903388100643083120313BD
:1004780081000B110800F401F50183120313201CFD
:10048800462A472A4D2A2208F4070318F50A2308A2
:10049800F50701300310A20DA30DFF3E031D4E2AE0
:1004A80001300310A10CA00CFF3E031D552A2008A3
:1004B8002104031D602A612A412A7508A1007408D5
:1004C800A00008008316031307158714FF30920055
:1004D8003F308312031397051708F0390C3897003B
:1004E8000F309D04303097040B3095009D161D1673
:1004F8000B309B008C100330920412158C1C852A3B
:10050800862A822A8316031307118710080083128C
:1005180003131F083F3940389F00831603139F12A7
:100528001F129F13C330831203139F051F140C134C
:100538000330F400F40B9E2AA12A0800033083122A
:1005480003133F0640040319AA2AAB2AB22A013032
:10055800BF070318C00A0030C007B62A0130BF0021
:100568000030C0000800C12AB92ABA2ABB2A0130C3
:10057800F0020030031CF103F10270087104031D3E
:08058800C62AC72AB82A0800A0
:08400000FF3FFF3FFF3FFF3FC0
:04400E00D420FF3F7C
:00000001FF
