:060000000A128A110C280F
:10000800FE00030EFA000A08FB000A128A114529AD
:100018000A128A110F28F001F101F201F301F4012B
:10002800F50183120313BC01BD01BE01BF01C0016C
:10003800C101C20183010A128A1122280A128A11F7
:10004800B4220A128A110A128A1151230A128A1139
:100058000A128A1112230A128A110A128A1180239B
:100068000A128A110130F4000030F500F001F101A4
:1000780083120313091D41284228322909194528EA
:10008800462842280A128A1193230A128A11322911
:1000980083120313081088100815C3309F05033016
:1000A80083120313BB00BB0B5728831203139F143F
:1000B8009F185F2860285C280030AF00B000FF3030
:1000C800B1000030B2000530B3000030B400113088
:1000D800B5000030B6001E080A128A1179220A12E9
:1000E8008A11831203133008F3002F08F2007208F4
:1000F8009500033083120313BB00BB0B81288312C6
:1001080003131F08C33904389F00033083120313F5
:10011800BB00BB0B8D28831203139F149F189528CF
:10012800962892280030AF00B000FF30B1000030B0
:10013800B2000530B3000030B4001130B500003013
:10014800B6001E080A128A1179220A128A1183122D
:1001580003133008C1002F08C00040089B0003307B
:1001680083120313BB00BB0BB728831203131F08AA
:10017800C33908389F00033083120313BB00BB0B3D
:10018800C328831203139F149F18CB28CC28C82890
:100198000030AF00B000FF30B1000030B2000530D1
:1001A800B3000030B4001130B5000030B6001E08AE
:1001B8000A128A1179220A128A118312031330084B
:1001C800BF002F08BE00033083120313BB00BB0B14
:1001D800EB28831203131F08C3390C389F00033020
:1001E80083120313BB00BB0BF728831203139F145E
:1001F8009F18FF280029FC280030AF00B000FF300E
:10020800B1000030B2000530B3000030B400113046
:10021800B5000030B6001E080A128A1179220A12A7
:100228008A11831203133008BD002F08BC00033065
:1002380083120313BB00BB0B1F293C288312031333
:100248000814881008117208950040089B003C2883
:10025800831203130810881408113C287508003A03
:10026800031937293C287408013A03194C28033A22
:1002780003192229013A03192C293C280A128A1148
:100288000C28831203130C1E4A294B294C290C12E3
:100298008C1E4F29502951298C120C1F542955297D
:1002A80056290C130B1D59295A29772964308100C6
:1002B80085173F08F7003E08F6000A128A11A623A0
:1002C8000A128A1183120313851305173D08F700D4
:1002D8003C08F6000A128A11A6230A128A11831210
:1002E800031305130B110B1C7A297B29092A0618FD
:1002F8007E297F2988297008043EF00071080318B8
:10030800013E003EF100082A86188B298C29952980
:100318007008FC3EF00071080318013EFF3EF10032
:10032800082A061998299929C3297208F60070081D
:100338000A128A1137230A128A11831203134008FA
:10034800F6007008013E0A128A1137230A128A1130
:10035800831203133E08F6007008023E0A128A113F
:1003680037230A128A11831203133C08F600700817
:10037800033E0A128A1137230A128A11082A86199B
:10038800C629C729082A023074067504031DCD2919
:10039800CE29082A70080A128A1169230A128A11BA
:1003A800F800F9017808F2007908F3007008013EB6
:1003B8000A128A1169230A128A11F800F9017808C9
:1003C80083120313C0007908C1007008023E0A12A4
:1003D8008A1169230A128A11F800F9017808831230
:1003E8000313BE007908BF007008033E0A128A1181
:1003F80069230A128A11F800F90178088312031395
:10040800BC007908BD00082A0B107B088A007A0E08
:100418008300FE0E7E0E090083120313AC01A71F92
:10042800162A172A1E2AA609A709A60A0319A70A1F
:10043800AC01AC0AA91F212A222A2B2AA809A9093A
:10044800A80A0319A90A0130AA002A08AC06AD01B6
:10045800AE01260827040319322A332A6A2AAB0177
:10046800AB0A412A01300310A60DA70DFF3E031D5C
:10047800372A0130AA002A08AB07A71F442A452AB1
:10048800362A01300310AD0DAE0DFF3E031D462A7E
:1004980027082902031D522A26082802031C552A68
:1004A800562A5D2A2608A8022708031CA903A902C0
:1004B8002D1401300310A70CA60CFF3E031D5E2A65
:1004C8000130AB02031D692A6A2A452A2C08031940
:1004D8006E2A6F2A742AAD09AE09AD0A0319AE0A4D
:1004E8002E08A7002D08A600080083120313BA00DF
:1004F8002F083102B7003008031C300A3202B80056
:1005080033083707A60034080318340A3807A70049
:100518003A08B9002F083902A00030090318013E33
:10052800A10033083502A2003408031C340A36023D
:10053800A3000A128A11EB220A128A1183120313EA
:100548002108A9002008A8000A128A1110220A12FC
:100558008A11831203132708B0002608AF00080089
:100568000F3083160317880089010F308316031391
:1005780085000F3086000630870088010430890026
:1005880083120313850186018701880189013F30A1
:1005980083160313960081138B150F088F39303893
:1005A8008F000F148B170C178B16831203130C1361
:1005B8000B1083160313811281110108F8390338CF
:1005C800810064308312031381000B110800831229
:1005D8000313A401A501201CF22AF32AF92A2208F0
:1005E800A4070318A50A2308A50701300310A20DC4
:1005F800A30DFF3E031DFA2A01300310A10CA00C25
:10060800FF3E031D012B20082104031D0C2B0D2B7D
:10061800EF2A2508A1002408A00008008316031368
:1006280007158714FF3092003F3083120313970594
:100638001708F0390C3897000F309D0430309704B4
:100648000B3095009D161D160B309B008C10033047
:10065800920412158C1C312B322B2E2B831603136C
:10066800071187100800F700831603178C183D2B15
:100678003E2B382B7708831203178D0076088C00E1
:10068800831603178C130C158B1355308D00AA3065
:100698008D008C140C118B170800831203131F088C
:1006A8003F3940389F00831603139F121F129F1370
:1006B800C330831203139F051F140C1303308312D6
:1006C8000313A000A00B662B0800F600831603177F
:1006D8008C186F2B702B6A2B0C18732B742B6A2BAE
:1006E8007608831203178D00831603178C130C14D6
:1006F800831203170C0808000E30831603139900A1
:10070800181283120313981783160313981683126B
:1007180003130C12181683160317871508000330E5
:10072800740675040319992B9A2BA12B0130F40731
:100738000318F50A0030F507A52B0130F400003046
:10074800F5000800B02BA82BA92BAA2B0130F60224
:100758000030031CF703F70276087704031DB52B56
:06076800B62BA72B0800D0
:08400000FF3FFF3FFF3FFF3FC0
:04400E00D420FF3F7C
:00000001FF
